{
  "contractName": "greeter",
  "abi": [
    {
      "inputs": [
        {
          "internalType": "string",
          "name": "_greeting",
          "type": "string"
        }
      ],
      "name": "greet",
      "outputs": [],
      "stateMutability": "nonpayable",
      "type": "function"
    },
    {
      "inputs": [],
      "name": "getGreeting",
      "outputs": [
        {
          "internalType": "string",
          "name": "",
          "type": "string"
        }
      ],
      "stateMutability": "view",
      "type": "function"
    }
  ],
  "bytecode": "0x608060405234801561000f575f80fd5b506106498061001d5f395ff3fe608060405234801561000f575f80fd5b5060043610610034575f3560e01c8063ead710c414610038578063fe50cc7214610054575b5f80fd5b610052600480360381019061004d9190610260565b610072565b005b61005c610084565b6040516100699190610321565b60405180910390f35b805f90816100809190610544565b5050565b60605f80546100929061036e565b80601f01602080910402602001604051908101604052809291908181526020018280546100be9061036e565b80156101095780601f106100e057610100808354040283529160200191610109565b820191905f5260205f20905b8154815290600101906020018083116100ec57829003601f168201915b5050505050905090565b5f604051905090565b5f80fd5b5f80fd5b5f80fd5b5f80fd5b5f601f19601f8301169050919050565b7f4e487b71000000000000000000000000000000000000000000000000000000005f52604160045260245ffd5b6101728261012c565b810181811067ffffffffffffffff821117156101915761019061013c565b5b80604052505050565b5f6101a3610113565b90506101af8282610169565b919050565b5f67ffffffffffffffff8211156101ce576101cd61013c565b5b6101d78261012c565b9050602081019050919050565b828183375f83830152505050565b5f6102046101ff846101b4565b61019a565b9050828152602081018484840111156102205761021f610128565b5b61022b8482856101e4565b509392505050565b5f82601f83011261024757610246610124565b5b81356102578482602086016101f2565b91505092915050565b5f602082840312156102755761027461011c565b5b5f82013567ffffffffffffffff81111561029257610291610120565b5b61029e84828501610233565b91505092915050565b5f81519050919050565b5f82825260208201905092915050565b5f5b838110156102de5780820151818401526020810190506102c3565b5f8484015250505050565b5f6102f3826102a7565b6102fd81856102b1565b935061030d8185602086016102c1565b6103168161012c565b840191505092915050565b5f6020820190508181035f83015261033981846102e9565b905092915050565b7f4e487b71000000000000000000000000000000000000000000000000000000005f52602260045260245ffd5b5f600282049050600182168061038557607f821691505b60208210810361039857610397610341565b5b50919050565b5f819050815f5260205f209050919050565b5f6020601f8301049050919050565b5f82821b905092915050565b5f600883026103fa7fffffffffffffffffffffffffffffffffffffffffffffffffffffffffffffffff826103bf565b61040486836103bf565b95508019841693508086168417925050509392505050565b5f819050919050565b5f819050919050565b5f61044861044361043e8461041c565b610425565b61041c565b9050919050565b5f819050919050565b6104618361042e565b61047561046d8261044f565b8484546103cb565b825550505050565b5f90565b61048961047d565b610494818484610458565b505050565b5b818110156104b7576104ac5f82610481565b60018101905061049a565b5050565b601f8211156104fc576104cd8161039e565b6104d6846103b0565b810160208510156104e5578190505b6104f96104f1856103b0565b830182610499565b50505b505050565b5f82821c905092915050565b5f61051c5f1984600802610501565b1980831691505092915050565b5f610534838361050d565b9150826002028217905092915050565b61054d826102a7565b67ffffffffffffffff8111156105665761056561013c565b5b610570825461036e565b61057b8282856104bb565b5f60209050601f8311600181146105ac575f841561059a578287015190505b6105a48582610529565b86555061060b565b601f1984166105ba8661039e565b5f5b828110156105e1578489015182556001820191506020850194506020810190506105bc565b868310156105fe57848901516105fa601f89168261050d565b8355505b6001600288020188555050505b50505050505056fea2646970667358221220c6af79f1ac37f1a90cdfe8dd3324d18bffdbb3ca3345def0a8734390efb8f43b64736f6c63430008150033",
  "immutableReferences": {},
  "source": "pragma solidity ^0.8.21;\ncontract greeter{\n    string greeting;\n    \n    function greet(string memory _greeting)public {\n        greeting=_greeting;\n    }\n    function getGreeting() public view returns(string memory) {\n        return greeting;\n    }\n}\n",
  "sourcePath": "/Users/laishawadhwa/pyconDapp/contracts/greeter.sol",
  "compiler": {
    "name": "solc",
    "version": "0.8.21+commit.d9974bed.Emscripten.clang"
  },
  "schemaVersion": "3.4.16",
  "updatedAt": "2023-09-14T07:09:17.648Z",
  "devdoc": {
    "kind": "dev",
    "methods": {},
    "version": 1
  },
  "userdoc": {
    "kind": "user",
    "methods": {},
    "version": 1
  }
}